S01300004163726F626174546573742E73726563B5
S11300000C94D9000C94F6000C94F6000C94F600B1
S11300100C94F6000C94F6000C94F6000C94F60084
S11300200C94F6000C94F6000C9473040C94B10434
S11300300C94F6000C94F6000C94F6000C94F60064
S11300400C94F6000C94F6000C94F6000C94F60054
S11300500C94F6000C94F6000C94F6000C949E019B
S11300600C94F6000C94F6000C94F6000C94F60034
S11300700C94F6000C94F6000C94F6000C94F60024
S11300800C94F6000C94F6000C94F6000C94F60014
S11300900C94F6000C94F6000C94F6000C94F60004
S11300A00C94F6000C94F6000C94F6002900202C15
S11300B02000202C200009094D61676E65746F6D66
S11300C065746572203A2028002900202C20002025
S11300D02C200009094779726F73636F7065203AA9
S11300E02028002900202C2000202C20000A416315
S11300F063656C65726174696F6E203A2028000034
S113010001000096011200020000530143000300A5
S1130110004F0104010309043B01120203090433E3
S113012001060303090429010808033400310030DF
S113013000000006034D003200000012034A002EA6
S11301400020004600690065006E006500000004A0
S113015003090409024300020100C032090400003B
S1130160010202010005240010010524010101041B
S11301702402060524060001070582031000400935
S1130180040100020A000000070503024000000702
S11301900584024000001201000202000010C01693
S11301A07A040001010203010001C1120180360139
S11301B0813611241FBECFEFDAE0DEBFCDBF11E0E0
S11301C0A0E0B1E0EEEBFFE002C005900D92A0329A
S11301D0B107D9F721E0A0E2B1E001C01D92AC352E
S11301E0B207E1F70E9405020C94DD070C940000AD
S11301F08DEE90E00E9436066091260170912701F1
S113020080912801909129010E94E906CB010E9466
S1130210500689EE90E00E94360660912A017091A2
S11302202B0180912C0190912D010E94E906CB01B4
S11302300E94500685EE90E00E94360660912E01E1
S113024070912F0180913001909131010E94E90653
S1130250CB010E94500683EE90E00E94360683EDA7
S113026090E00E94360660913201709133018091D2
S11302703401909135010E94E906CB010E94500699
S11302808FEC90E00E943606609136017091370140
S113029080913801909139010E94E906CB010E94B6
S11302A050068BEC90E00E94360660913A01709102
S11302B03B0180913C0190913D010E94E906CB01F4
S11302C00E94500689EC90E00E94360686EB90E08E
S11302D00E94360660913E0170913F018091400179
S11302E0909141010E94E906CB010E94500682EBE5
S11302F090E00E9436066091420170914301809122
S11303004401909145010E94E906CB010E945006E8
S11303108EEA90E00E943606609146017091470192
S113032080914801909149010E94E906CB010E9405
S113033050068CEA90E00E94360608951F920F92B0
S11303400FB60F9211242F933F934F935F936F93A4
S11303507F938F939F93AF93BF93EF93FF93F894FF
S11303606A9A9EB184E089278EB98AE491E00E945A
S113037066038823D1F30E94F8007894FF91EF91EB
S1130380BF91AF919F918F917F916F915F914F91A9
S11303903F912F910F900FBE0F901F901895CF9300
S11303A00E94F3038823E1F30E94D503C82F0E941F
S11303B00204C13041F5109225011092240180E01D
S11303C090E0FC01EE0FFF1FEE0FFF1FEA5DFE4FF2
S11303D060817181828193810E94E906CB010E9430
S11303E0500689E00E94180480912401909125010F
S11303F001969093250180932401893091050CF393
S11304008AE00E941804CF9108950E9458020E9425
S1130410BC036E9A769860E080E00E94F90288231B
S1130420D1F36E9A769A0F2EFCE46F2EF1E07F2EB4
S1130430F02D0F2EF4E04F2EF1E05F2EF02D0F2E55
S1130440FAE22F2EF1E03F2EF02D0F2EF6E5CF2EFF
S1130450F1E0DF2EF02D8AE491E00E946603882308
S1130460D1F3E3017201810169917991F7018190DE
S11304709190A190B1907F01882777FD8095982F66
S11304800E941C07A50194010E948406F80161934F
S11304907193819391938F01CC15DD0529F786E043
S11304A090E090932501809324010E94CF01D3CF43
S11304B0589A599A5A9A8CE08093B800E9E6F0E089
S11304C080818062808380818F7E8083EA9A7894A1
S11304D0089584E88093BC00ECEBF0E080818823ED
S11304E0ECF78091BB00089520E030E0ECEBF0E005
S11304F08081882334F02F5F3F4F293E83E0380703
S1130500B9F781E0283E334009F480E008958093F0
S1130510BB0084E88093BC000E947402882321F00D
S11305208091B900887F089580E00895CF93DF9388
S1130530C82FD62F94EA9093BC000E9474028111B4
S113054004C094E99093BC001CC0DD2361F08C2F9F
S1130550880F8F5F0E948702883481F484E9809336
S1130560BC0080E00EC08C2F880F0E94870280326E
S113057039F484E98093BC0080E003C081E001C0C9
S113058081E0DF91CF910895CF93DF93C82FD62FC9
S113059060E00E949602882379F08D2F0E948702E2
S11305A0882351F084E98093BC0061E08C2F0E9481
S11305B0960281110E946902DF91CF910895CF9331
S11305C0DF93C62FD42F60E00E949602882371F037
S11305D08C2F0E948702882349F08D2F0E94870266
S11305E0882321F084E98093BC0081E0DF91CF91DE
S11305F00895CF93DF93C82FD62F843008F05EC0C0
S1130600643008F05DC00E9458022FE58AEE90E045
S1130610215080409040E1F700C0000065E789E682
S11306200E94C402883609F04DC041E06BE689E6B9
S11306300E94DF024C2F440F440F440F6CE189E603
S11306400E94DF024D2F440F440F440F6BE189E6F3
S11306500E94DF0242E067E389E60E94DF0240E095
S113066062E08EE10E94DF0240E067E389E60E94D7
S1130670DF024EE164E389E60E94DF0241E067E6BF
S113068089E60E94DF024DE164E289E60E94DF020E
S11306904EE965E289E60E94DF0243E066E289E60C
S11306A00E94DF0246E967E289E60E94DF0240E237
S11306B06AE689E60E94DF0281E005C080E003C0AB
S11306C080E001C080E0DF91CF910895DF92EF9246
S11306D0FF920F931F93CF93DF93CDB7DEB7649749
S11306E00FB6F894DEBF0FBECDBF7C018E010F5F45
S11306F01F4F0F2EFEE4DF2EF02D6D2D89E60E9494
S1130700C402F80181938F01DA94FAE3DF12F5CF82
S11307108F859889F701958384838F819885938742
S1130720828789819A81918B808B89899A89938325
S1130730828389859A85918780878B819C8197871D
S113074086878B899C89918380838B859C859783FD
S113075086838D819E819587848781E064960FB618
S1130760F894DEBF0FBECDBFDF91CF911F910F91E3
S1130770FF90EF90DF90089581E08093D70080EAA6
S11307808093D80082E189BD09B400FEFDCF80E9E1
S11307908093D8001092E00010922301109220015F
S11307A08CE08093E200789408959FB7F894809148
S11307B02301811103C09FBF8FEF089583E08093CD
S11307C0E9008091E80085FD03C09FBF8FEF089585
S11307D08091F1002091E80025FD03C02BE62093D1
S11307E0E8009FBF08959FB7F89480912301882360
S11307F031F083E08093E9008091F20001C080E051
S11308009FBF089580912301882389F02FB7F8941E
S113081083E08093E9008091E80085FF07C0E8EE5B
S1130820F0E09BE69083808185FDFCCF2FBF089587
S1130830CF93DF9390912301992309F44CC09FB780
S1130840F89424E02093E90020912101222349F027
S11308502091E80025FD03C09FBF8FEF41C0109297
S113086021013091E400375E2091E80025FD24C089
S11308709FBF9091E400931781F0909123019923F5
S113088061F1A9EEB0E044E0E8EEF0E0C4EED0E0BF
S11308900DC09FBF9881931305C081E0809321010F
S11308A08FEF1EC0909123019923C9F09FB7F8944C
S11308B04C93208125FFEDCF8093F1008091E800D7
S11308C085FD03C08AE38093E80085E080932201DC
S11308D09FBF80E005C08FEF03C08FEF01C08FEF93
S11308E0DF91CF9108951F920F920FB60F921124AA
S11308F08F939F93EF93FF93E1EEF0E0808110825A
S113090083FF11C01092E90091E09093EB001092E4
S1130910EC0092E19093ED0098E09093F000109237
S113092023011092200182FF13C0809123018823A8
S113093079F080912201882359F08150809322011B
S1130940811106C084E08093E9008AE38093E80083
S1130950FF91EF919F918F910F900FBE0F901F9079
S113096018951F920F920FB60F9211240F931F9395
S11309702F933F934F935F936F937F938F939F93A3
S1130980AF93BF93CF93DF93EF93FF931092E9005C
S11309908091E80083FF4EC1E1EFF0E0C081408127
S11309A02081808130E0382B8081508190E0BC012F
S11309B0752BB081A08182EF8093E800463009F066
S11309C058C004C081E28093EB003BC1C6E08FEFC6
S11309D090E0FC01459154912417350711F00796D6
S11309E023C0FC013296459154916417750711F0A8
S11309F007961AC0FC01349625913491FC01369671
S1130A0054918B2F90E09A2B8F3F910519F010F0A1
S1130A108FEF90E0851708F4582FA8EEB0E070E14E
S1130A206EEFC1EFD0E003C0C15099F6CBCF8C91EB
S1130A30982F9570E1F382FD04C1452F513108F0E0
S1130A40472F442309F4FAC0F901842F9491988321
S1130A50815031968111FACF8FEF840F90E0019687
S1130A60280F391F541B6C935111E1CF4031F9F217
S1130A70E8C0453061F48EEF8093E800E8EEF0E0E2
S1130A80808180FFFDCF20682093E300DAC04930E5
S1130A9009F036C0C1115FC02093230110922001D8
S1130AA0109222018EEF8093E80011E088EA91E031
S1130AB0C9EED0E0ABEEB0E06CEE70E04DEE50E08D
S1130AC018839C012F5F3F4FFC0104910C9300237A
S1130AD061F0F9012491FB0120839C012D5F3F4FBC
S1130AE0FC0132968491FA0180831F5F153011F066
S1130AF0C901E6CFEAEEF0E08EE180831082A1C066
S1130B00483081F4C03809F042C0E8EEF0E080815A
S1130B1080FFFDCF809123018093F1008EEF8093BD
S1130B20E8008FC04132B9F4C13A09F040C0E8EEA0
S1130B30F0E0808180FFFDCFE8E1F1E08FE191E01A
S1130B40A1EFB0E021912C93E817F907D9F78EEFC4
S1130B508093E80076C04032D1F4C13209F043C03A
S1130B60E8EEF0E0808182FFFDCFE8E1F1E08FE183
S1130B7091E0A1EFB0E02C912193E817F907D9F7A0
S1130B80E8EEF0E08BEF80838EEF80835AC0423230
S1130B9071F4C13209F04EC020932001E8EEF0E078
S1130BA0808180FFFDCF8EEF8093E8004AC0411121
S1130BB01AC0E8EEF0E0808180FFFDCFC23851F426
S1130BC0E9EEF0E060838091EB0085FB882780F9F3
S1130BD0108201C080E0E1EFF0E0808310828EEFAC
S1130BE08093E8002EC0842F8D7F813019F5C230A8
S1130BF009F5232BF9F46F778FEF860F8430D0F447
S1130C008EEF8093E8006093E900433021F481E2A1
S1130C108093EB0016C089E18093EB0081E090E0C3
S1130C2002C0880F991F6A95E2F7EAEEF0E080832C
S1130C30108207C081E28093EB0003C06C935111D2
S1130C40F6CEFF91EF91DF91CF91BF91AF919F913C
S1130C508F917F916F915F914F913F912F911F9150
S1130C600F910F900FBE0F901F9018951F93CF9365
S1130C70DF93EC012196FC011491112369F01A30E1
S1130C8019F48DE00E941804812F0E941804FE01BB
S1130C90149121961111F3CFDF91CF911F910895F3
S1130CA0EF92FF920F931F93CF93DF93CDB7DEB7ED
S1130CB027970FB6F894DEBF0FBECDBF8E010F5F2E
S1130CC01F4F27E0F80111922A95E9F74AE0B8018D
S1130CD00E94A8077E01F8E0EF0EF11CF801819153
S1130CE08F0181110E9418040E151F05B9F727966C
S1130CF00FB6F894DEBF0FBECDBFDF91CF911F9129
S1130D000F91FF90EF9008955058BB27AA270ED05B
S1130D10E5C0D6D030F0DBD020F031F49F3F11F4A1
S1130D201EF4CBC00EF4E095E7FBC1C0E92FE7D079
S1130D3080F3BA17620773078407950718F071F4F4
S1130D409EF5FFC00EF4E0950B2EBA2FA02D0B01DB
S1130D50B90190010C01CA01A0011124FF27591BFC
S1130D6099F0593F50F4503E68F11A16F040A22F02
S1130D70232F342F4427585FF3CF46953795279573
S1130D80A795F0405395C9F77EF41F16BA0B620B72
S1130D90730B840BBAF09150A1F0FF0FBB1F661FB9
S1130DA0771F881FC2F70EC0BA0F621F731F841FFC
S1130DB048F4879577956795B795F7959E3F08F022
S1130DC0B3CF9395880F08F09927EE0F97958795E1
S1130DD0089504D06894B111B5C0089598D088F0EE
S1130DE09F5790F0B92F9927B751A0F0D1F0660F13
S1130DF0771F881F991F1AF0BA95C9F712C0B1302E
S1130E0081F09FD0B1E008959CC0672F782F882788
S1130E10B85F39F0B93FCCF3869577956795B3956C
S1130E20D9F73EF490958095709561957F4F8F4FDB
S1130E309F4F0895E89409C097FB3EF490958095E0
S1130E40709561957F4F8F4F9F4F9923A9F0F92F8C
S1130E5096E9BB279395F695879577956795B7950A
S1130E60F111F8CFFAF4BB0F11F460FF1BC06F5FF0
S1130E707F4F8F4F9F4F16C0882311F096E911C002
S1130E80772321F09EE8872F762F05C0662371F023
S1130E9096E8862F70E060E02AF09A95660F771F37
S1130EA0881FDAF7880F9695879597F9089597F92B
S1130EB09F6780E870E060E008959FEF80EC0895FC
S1130EC000240A9416161706180609060895002425
S1130ED00A9412161306140605060895092E03949F
S1130EE0000C11F4882352F0BB0F40F4BF2B11F413
S1130EF060FF04C06F5F7F4F8F4F9F4F089557FD72
S1130F009058440F551F59F05F3F71F04795880F73
S1130F1097FB991F61F09F3F79F08795089512160A
S1130F2013061406551FF2CF4695F1DF08C01616B6
S1130F3017061806991FF1CF869571056105089467
S1130F400895E894BB2766277727CB0197F908957E
S1130F50BB274A3031F4992322F4BDE29095819560
S1130F609F4F0C94B407BB27FB015527AA27880F72
S1130F70991FAA1FA41710F0A41B83955051B9F709
S1130F80A05DAA3308F0A95DA193009779F7B11188
S1130F90B1931192CB010C94CD07DC01FC01672FB6
S1130FA071917723E1F7329704C07C916D9370833C
S1110FB06291AE17BF07C8F30895F894FFCFFF
S1130FBE0C420C43291C65C3715D8A435E3AB9C267
S1130FCEA4A03543192401C300E100000000080069
S9030000FC
